:1020000000800020453D00002D3D00002D3D0000DA
:1020100000000000000000000000000000000000C0
:102020000000000000000000000000002D3D000046
:1020300000000000000000002D3D0000993D000060
:102040002D3D00002D3D00002D3D00002D3D0000E8
:102050002D3D00002D3D000029270000313D0000EE
:102060002D3D00002D3D00002D3D0000A12A000067
:102070002D3D00009D3C00002D3D00002D3D000049
:102080002D3D00002D3D00002D3D00002D3D0000A8
:10209000000000002D3D00002D3D00002D3D000002
:1020A0002D3D00002D3D00002D3D00002D3D000088
:1020B0000000000010B5064C2378002B07D1054B1B
:1020C000002B02D0044800E000BF0123237010BDA4
:1020D000900200200000000078DF0000044B10B5E3
:1020E000002B03D00349044800E000BF10BDC046E8
:1020F000000000009402002078DF0000F7B5012501
:102100002B4E0121306802F077F82A4C3C222B003C
:1021100000950221200001F059FA274F200001F01C
:1021200044FA2000032101F0CAF824496761200025
:1021300002F06BF9200001F00BFDFA20800001F0A5
:102140006FFE200001F031FA2000022101F0B7F803
:102150002D23676123611A49200002F056F92900F6
:10216000200001F0ACF8174B17492361200002F062
:102170004CF91649200002F048F9200001F0E8FC73
:10218000134801F04DFE200001F00FFA200003215A
:1021900001F095F800230F492361200002F035F982
:1021A000200001F0D5FC2900306802F055F8F7BD99
:1021B00008000020AC0200200100010076CD0000E4
:1021C0007DCD00000B000F0082CD00008ECD000001
:1021D000DC05000097CD00001F4B70B5186802F0B9
:1021E00067F8050001281AD11C4B1E78002E16D165
:1021F0001B4B1C4C1870200001F0D7F90321200064
:1022000001F05DF818492661200002F0FEF8200078
:1022100001F09EFC154B2900186802F01DF8144BC4
:10222000186801F087FF4623FF33984213D90B4A01
:102230001478002C0FD10A4B197800290BD00121FA
:102240001C70117001F0B6FD0A4B21001860074B9D
:10225000186802F001F870BD0C0000201C0300207B
:1022600004000020AC02002097CD000008000020F0
:1022700024030020200300200B4B10B5186801F048
:1022800059FFAF235B0098420CD9084B1A78002AFB
:1022900008D000221A7001F08DFD0122044B186055
:1022A000044B1A7010BDC046100000201C03002013
:1022B000180300201D030020F7B55F4B1B78002B8F
:1022C00000D1B8E0FFF7D8FF01F074FD5B4B1D783B
:1022D000002D4FD15A4B5B491B68C01A04F058F9C6
:1022E0000F005949380004F053F9584C0E002000F3
:1022F00001F05BF90321200000F0E1FF544B52494B
:1023000063613800256104F0BDF804F08DFA06F031
:1023100079F8009502000B00200002F059F94D4FAA
:102320002000390002F071F8FA213000890004F031
:10233000A9F804F0C3FA06F065F8009502000B0056
:10234000200002F045F93900200002F05EF8FA2181
:102350003000890004F01CF9080004F0AFFA06F020
:1023600051F8009502000B00200002F031F9200026
:1023700001F0EEFB304B1D78002D9ED1FFF72CFFB6
:102380002E4B1B78002BF5D0334B2E4918682C4B65
:102390001B68C01A314B186004F0FAF80F002A4984
:1023A000380004F0F5F8294C0E00200001F0FDF88B
:1023B0000321200000F083FF254B2349636138008F
:1023C000256104F05FF804F02FFA06F01BF8009581
:1023D00002000B00200002F0FBF81E4F2000390025
:1023E00002F013F8FA213000890004F04BF804F0F1
:1023F00065FA06F007F8009502000B00200002F0D5
:10240000E7F83900200002F000F8FA2130008900D6
:1024100004F0BEF8080004F051FA05F0F3FF00954F
:1024200002000B00200002F0D3F8200001F090FB26
:10243000024B1D709EE7F7BD1C0300201D0300200A
:102440002003002080EE360060EA0000AC0200208D
:102450000100010074CD00001803002014030020C7
:1024600010B5FFF7B9FEFFF707FFFFF725FF10BD17
:102470001FB50A4B0A4C02930A4B202201930123F9
:102480005B4200938021084B200000F083FF074A45
:102490000749200003F0E0FF1FBDC046A0860100F1
:1024A000AC020020801A0600AC03002000000020CF
:1024B000F5330000F0B5040085B01E000AAB1B78B0
:1024C000103001930BAB1B78170002930CAB1B78F9
:1024D0000D00039300F0F4F82000243000F0F0F831
:1024E000220000234032A363E363137063729D42B2
:1024F00005D10A4B0A4A22210A4805F0F3FF6B4630
:102500001B79200063716B461B7A2560E3716B4673
:102510001B7B2771A671237205B0F0BD9FCD000013
:1025200015CE0000B0CD0000437A002B04D1837299
:10253000C372C36001334372704730B5040085B085
:1025400002AD00680291039202F038F96B79227AA9
:10255000E17900932068002302F0F6FA2979029AC3
:10256000206802F04FF9206802F01EF905B030BD76
:1025700070B518260400FFF7D7FF33000821207933
:102580000D4D4343EB18595601F0B4FE33000821BA
:10259000A0794343EB18595601F0ACFE082160794D
:1025A0004643AD19695601F0A5FE044B200006CB49
:1025B000FFF7C3FF70BDC04614D900006C030020B4
:1025C00007B5837A00910192002B07D09A070AD5AC
:1025D000EFF310835A425341C37272B60099019AC5
:1025E000FFF7ABFF07BDDB07F8D5C368014A9BB215
:1025F0009360F3E700180040837A002B05D09A0718
:1026000004D5C37A002B00D062B67047DB07FCD537
:10261000C368024A9BB2D360F7E7C0460018004087
:1026200010B5006802F0D3F810BD00001FB5094BCB
:10263000094A0A491A6000225A711A710123029349
:102640000193093300930932023B0548FFF732FF3B
:1026500005B000BD6C03002000093D001C080020EF
:1026600028030020094B1868002809D1EFF31082D5
:102670000749002A08D172B6BFF35F8F01320A7092
:102680001A6801321A6070470870F9E77803002071
:1026900074030020084B1A68002A0CD01A68013A0B
:1026A0001A601B68002B06D1044B1B78002B02D04C
:1026B000BFF35F8F62B67047780300207403002079
:1026C000FF23002110B504000370FC3B41708170B2
:1026D000C170017143710C22083005F080FF2000A9
:1026E00010BD000001220B0010B5134008D00D4BA7
:1026F0001A70042343708368002B00D0984710BDE4
:102700000222114204D007490A704370C368F3E7FC
:1027100004231942F3D0034A13700333437003694F
:10272000EAE7C0464E48004110B5FFF79BFF0C4B4F
:102730001B8C1B071B0F0B2B0FD80A4A99008858BC
:1027400000280AD00F2408490A78A24313430B70CB
:10275000064B1978C9B2FFF7C5FFFFF79BFF10BD05
:10276000004800417C0300203F4800414E480041A2
:1027700000207047F8B505000E0017000024BC4289
:1027800008D02B68315D1B6828009847002801D0CD
:102790000134F4E72000F8BD70470300FC33196AE8
:1027A000DA69914203D01B6AC018007E704701208D
:1027B0004042FBE70300FC33D8691B6AC01A01D50D
:1027C0000130FF3070470000F7B50193FA238026EF
:1027D000002504009B008360124B760008330F0035
:1027E00045602900009203603200183005F0F7FEC2
:1027F00023002000FC332130DD6132001D622900FE
:10280000FF3005F0ECFE87239B00E3185D609D60C0
:102810006B461B78276123756B461B79A5752000D5
:102820006375FEBD6CCE000070B5060018250C491E
:10283000006902F0B3F9306902F004F82B000821B6
:10284000307D084C4343E318595601F053FD0821ED
:10285000707D45436419615601F04CFD70BDC04662
:10286000A086010014D9000070B504000D000069B5
:1028700001F0FDFF2900206902F090F9206901F0C4
:10288000E1FF70BD8A2300229B00C1540C3BC3189A
:102890005A609A60012383757047020010B5FC32BC
:1028A000536894680133DBB29C4202D054680155EE
:1028B000536010BD002210B5837D93420DD0872355
:1028C0009B00C4186368A4680133DBB2A34204D040
:1028D0002130FF30FFF7E1FF0122100010BD03009F
:1028E000FC3399685A68914206D09A68805C9A686D
:1028F0000132D2B29A60704701204042FBE70022C9
:102900008A2370B59B00827505000E00C15C0069CA
:1029100001F0E0FF002806D10321286901F0C4FF7F
:102920000224200070BD872328009B00EA1853680A
:1029300094682130FF301C1B01D50134FF34002C7A
:102940000ED02C69FFF7CBFFC1B2200002F000F8D7
:102950000028E8D10321286901F0A6FF0324E0E75D
:10296000002EDED00321286901F09EFFD9E710B5C3
:102970000121FFF7C4FF10BD10B51830FFF7AFFFFE
:1029800010BD70B50400006902F002F8002814D0F0
:10299000206902F00BF8002810D0206901F07AFFBE
:1029A0000321206901F080FF8C239B00E558002D56
:1029B00039D10023FC34E361236270BD206901F04A
:1029C000FFFF002809D0206901F0F5FF002804D09E
:1029D000206901F0FAFF0028DFD0206901F0F0FF44
:1029E000002826D1206901F0DCFF0028E5D020690D
:1029F00001F0EBFF002837D087239B00E2185368D3
:102A000092689B1A01D50133FF33FF21002B05D0BB
:102A100020002130FF30FFF762FFC1B2206901F0D2
:102A2000A9FFA075C9E7236820001B699847A8473C
:102A3000BFE7206901F02EFF2069032101F034FF78
:102A4000206901F0C2FF0028B7D0872300229B0035
:102A5000E3185A609A600123A3758B239B00E35807
:102A60009342AAD09847A8E72200FC32D369126AA1
:102A70000133DBB22069934206D101F002FF03214A
:102A8000206901F011FF98E701F0A4FF0100200088
:102A90001830FFF702FF206901F0FCFEEFE70000AD
:102AA00010B50248FFF76DFF10BDC046AC03002013
:102AB00010B50523042202490248FFF785FE10BD28
:102AC00024080020AC0300207047F0B51D0089B039
:102AD0000EAB00241C5F0FAB1B8816000693A31AD5
:102AE000DA179B18534002936B1ADA179B1853405E
:102AF0000393039A029B0190934205DC23002C0070
:102B00001D0033000E001900A64205DC2B000D004D
:102B10001900230034001E00331B9BB204934B1B8F
:102B2000DA179B18534007936B4610229A5ED30F17
:102B30009B185B10009301238D4221DA0593B44268
:102B400024DC019B039A1B689B691F00029B934234
:102B500018DD22002900069B0198B847009B079AC0
:102B60009B1A9BB21AB20092002A06DA059AAD1897
:102B7000049A2DB2D3181BB20093013424B2DEE7BD
:102B80005B42DBE7069B2A002100E5E709B0F0BDC8
:102B9000704710B504682469A04710BD37B506AC6E
:102BA000258804680095A46BA04737BD37B506ACEF
:102BB000258804680095E46BA04737BD73B506AC63
:102BC0000025655F07AC2688046801960095246C93
:102BD000A04773BDF0B5160004000D0085B0039347
:102BE0000AAB1F8803685B699847039B2268013B17
:102BF0009B191BB200930197976A2B0032002900A2
:102C00002000B84723682000DB6A984705B0F0BD74
:102C1000F0B505001C000E00170085B00AAB1B883C
:102C2000013C03930368A4195B69984703992A68D8
:102C30000191009723B23100946A28003A00A0471E
:102C40002B682800DB6A984705B0F0BDF0B50E0090
:102C500087B003930CAB029200229B5E05000493A5
:102C60000DAB1B883400059303685B699847039A92
:102C70002B68B21894420ADA059A210000921F6A62
:102C8000029A049B28000134B84724B2EFE7DB6ABC
:102C90002800984707B0F0BD13B501910E24015FDD
:102CA0000C22835E02680091146C00221100A04780
:102CB00013BDF0B5040015000E0087B004930CABF3
:102CC00000229B5E05930DAB1B88039303685B6931
:102CD0009847039A236800925F6A2A00049B310098
:102CE0002000B847059B03995A1E2368009152198A
:102CF0005F6A3100049B200012B2B847039A236830
:102D000000921F6A2A00059B31002000B8470499F1
:102D1000039A236801390092891909B21F6A2A00AF
:102D2000059B2000B84723682000DB6A984707B05E
:102D3000F0BD7047F0B585B01E000AAB0027DF5F1D
:102D40000BAB1B8814000500029103930268B1428B
:102D500010D1BC4202DC3B0027001C000399013467
:102D60000091E31B966B1BB23A0002992800B04712
:102D700005B0F0BDBC4211D1029BB34202DC33006E
:102D8000029E0293029B0399013300919B1BD76B18
:102D90001BB2220031002800B847E9E75369984781
:102DA000039A2B68019200979F6A28003300220043
:102DB0000299B8472B682800DB6A9847D8E70323B5
:102DC000194010B50822835E81760A24025F01292A
:102DD00004D0032902D08381C28110BD8281C381C6
:102DE000FBE700004281C28101225242426102227D
:102DF000002310B5FF32074C0283013A0834FF3A32
:102E0000436004600181818103618376C276037728
:102E1000036210BD90D30000F0B58DB0089312ABE3
:102E2000039200229B5E0791049313AB00229B5EEA
:102E30000400099314AB1B880A9303685B699847E5
:102E40000722049B039FD91DCB1713405B18DB108F
:102E5000059300231D0001930B92039ABBB20693C6
:102E60009B1A099A1BB29A422BDD0023049A9342C3
:102E70001EDA9AB202920B9A6D0099B2EDB211422B
:102E800004D1089A0199DB105218D55C6BB2002B63
:102E90000ADA079B029A2000D118236809B29B69BD
:102EA0003A001E000A9BB047029E013633B2DDE7AE
:102EB000059A019B9446069F6344013701933FB2F4
:102EC000CBE723682000DB6A98470DB0F0BD000017
:102ED000F0B595B01D001AAB1B88040005931BAB21
:102EE0001E881CAB1B78089103931DAB1B780492C2
:102EF0000293036A002B00D0C4E00C22835E8B4255
:102F000000DC7DE00E22835E049A934278DD062386
:102F1000039A53435B18002B72DD029B049ADB007B
:102F20009B18002B6CDD037F002B03D1AF2D01D943
:102F30000135EDB2236820005B69984705235D43A6
:102F40000B9300230793984B5B190F93079A0F9BE2
:102F50009B5C0A936B469B8B09936B469B890D93F5
:102F60006B460D9A1F8C099B5343FB181BB20E93A3
:102F700008230C930023069301220A9B2068134226
:102F800052D06B461A8B198A039B012B3AD1029BB4
:102F9000012B37D1099B52188569D919059B12B2AB
:102FA00009B22000A847069B01335BB206930A9B37
:102FB0005B080A930C9B013BDBB20C93002BDBD12B
:102FC000079B01335BB207930B9B013BDBB20B9377
:102FD000002BBBD1059BB3420ED0039B2268012B73
:102FE0003FD1029B012B3CD105370096156A39B2BF
:102FF0000733049A2000A84723682000DB6A98471B
:1030000015B0F0BD6B460C255B5F029D6A438A18C4
:10301000059912B2019169460825495F0091C56979
:103020000E992000A847BEE7059BB342BBD06B4674
:10303000198B1A8A039B012B0AD1029B012B07D102
:10304000099B5218D91912B209B285693300A8E751
:103050006B460C255B5F029D01966943521812B2C4
:10306000D9E76B460C215B5E05210D980196414323
:1030700002987918C0000090D56909B2049A20001E
:10308000A847B9E71A7AAD1AEDB25A68ED001B6885
:10309000551913932B880993AB780D93EB78119303
:1030A0000523EB560E930623EB560F93039B012B40
:1030B00002D8029B012B56D96B4638229B5E0B939C
:1030C0006B463C229B5E0C930027236820005B69C3
:1030D000984707970697119B069A9A4200D38BE769
:1030E0006B461B8A00260A930C9B9B18029A53433B
:1030F0000A9AD3181BB210933B000D9A96424BD2FA
:103100005A1CD2B212920722134207D1099B099985
:10311000139A0133525C9BB2079209936B461B7F53
:103120005BB2002B17DA6B46198C039B2068012BCE
:103130001DD1029B012B1AD10A9B0F9A9A18069B4C
:10314000D2180E9B12B2C918836989191D0009B2E1
:10315000059B2000A847079B01365B00DBB2079365
:10316000F6B2129BC9E700230C930B93ACE76B46B6
:103170000C229B5E0B9A039D92196A438918059A4B
:1031800009B201926A460825525F0092C269200086
:103190001500109AA847DEE7069D0D9B0135FF1824
:1031A000EBB2FFB2069396E790CE0000F0B5026A4C
:1031B00085B004000B00002A34D10A2908D1437ECF
:1031C0000282DB00628A9B186382012005B0F0BD99
:1031D0000D29FAD0E17E007E657E00290ED01026F2
:1031E000A15F0626464389190C27E65FB14205DD3B
:1031F0001226A15F2282EA00521862820290E08ABF
:103200001221625E0190A08A1026A15F00900395B2
:103210002000FFF75DFE0622237E5343228A9B187F
:103220002382D2E70A2905D100230382927A437EC2
:103230005343C7E70D29C8D0117A8B42C5D3507AC2
:103240009842C2D3591AC9B25068C9004518AF781C
:10325000002F28D0E978002925D0E17E207E667EE7
:10326000002913D005216956C91941438C46102104
:10327000675EBC440C21675EBC4507DD1227E15F39
:1032800000272782927A7243521862820290E08A63
:103290001221625E0190A08A1027E15F00900396E0
:1032A0002000FFF715FE2B79227EB6E7002900D11A
:1032B00001310176002A00D101324276704710B503
:1032C0000A00FFF7F3FF10BDF0B500291BDB0C254A
:1032D000445F8C4217DD002A15DB0E25445F9442C3
:1032E00011DD847E022C0FD0032C16D0012C04D1CA
:1032F000D2430489A4180A0021B2012B13D0002B59
:1033000022D0022B32D0F0BDCC4301890919D4431D
:10331000428909B2121912B2EFE7C943448964180D
:10332000110022B2E9E70725D4172C40A4182A403F
:1033300093400827C65FE41074436118C46A61189B
:103340000A7813430B70DEE70724D31723409B183A
:103350000826855FDB106B435918C36A2240591851
:10336000012393401A000B789343EBE70724D3170C
:1033700023400826855F9B18DB106B435918C36AEE
:10338000012022409040020059180B785A400A70E0
:10339000B9E7000070B5002504001E0012B204ABAE
:1033A00009B25D57FFF71EFD0F4B08332360002362
:1033B00063629E4200D10D4E2100FF223331A6628E
:1033C000E3620A704A708A70CA7022003732157040
:1033D000074A2000A2652200583253711371059BE1
:1033E0002366069B636670BD88D80000AC0300208E
:1033F00000093D00054B10B5083304000360C06AA6
:10340000002801D005F0D8F8200010BD88D80000B1
:10341000F8B50400806A0D00002812D02300303374
:103420001978FFF72FFAA06A002103681B689847F4
:10343000A06A290003681B689847A06AFFF797FAFB
:10344000F8BD226C216D1368606A8B4313600028FD
:1034500003D02900FFF7E4F8F2E708218020E36BAE
:10346000A26BA76C166828420ED03E4316601E68F9
:10347000E76C01393E431E601E68E76C4008BE439E
:103480001E600029EDD1DBE7BE43EFE770B5040015
:10349000806A0D00002810D0216EFFF7E5F92900A1
:1034A0004D1EA9412000A631FFF7B2FFA06A0028F7
:1034B00010D0616EFFF7D8F970BD606A002803D0A4
:1034C000A16DE26DFFF77CF8626C616D13688B4350
:1034D0001360E4E7626C616D1368606A0B4313600C
:1034E0000028E9D0FFF788F8E6E7F7B50400806A1E
:1034F0008B180D000193002828D027003037397829
:10350000FFF7C0F9A06A0021036801261B689847ED
:10351000019BA06A9D4216D0FF2E0BD1FFF727FA20
:103520003978A06AFFF7AEF9A06A00210368FE3E71
:103530001B689847A06A2978036801361B6898477A
:10354000F6B20135E4E7FFF712FAF7BD226C216D00
:1035500013688B431360019BAB42F6D02B78606AF3
:103560000093002804D01900FFF75AF80135F2E75C
:1035700008208026E36BA26BA76C0099BC461768F5
:103580000E420FD061460F4317601F68E16C01388F
:103590000F431F601F68E16C76088F431F6000288F
:1035A000EAD1E3E761468F43EEE7072110B50A222F
:1035B000835E0733DA170A40D2180821435ED2101F
:1035C0005A43C06A002105F00AF810BDF0B587B073
:1035D00004930CAB1B7804000593C36A0F0015001D
:1035E000002B1BD02000FFF7E0FF0A23E25E082338
:1035F000E15E202A25DC203AD30F9A180B00733B9A
:10360000D90FC918012302931F3352104910019397
:103610005333009312B209B2AD4B24E00A22835E09
:1036200007220733D8171040C0180822A35EC01025
:10363000584304F0B7FFE062061ED3D1300007B054
:10364000F0BD403AD30F9A180B00523BD90FC9185E
:10365000012302933F330193123352104910009318
:103660009C4B12B209B22000FFF7D6FB2300313386
:103670001F70A06A002800D180E0002D00D07BE000
:103680000A23E55E203D6B1E9D413C35230030330F
:103690001D70059B002B00D115E1FFF7C5F8049BB9
:1036A000002B1DD02500002037352856002817DBB9
:1036B000012100F0A1FD00200121285600F0CCFDE1
:1036C000012000F0ADFB00200021285600F0C4FDD1
:1036D0000A2000F0A5FB00200121285600F0BCFDC7
:1036E000A06A002800D1B2E0216EFFF7BDF80422E5
:1036F00079492000FFF7F9FE618920000139C9B23C
:10370000FFF786FE2500754904222000FFF7EDFE35
:1037100000233135EB561421012B00D10439200050
:10372000FFF776FE04226E492000FFF7DEFEA36855
:103730006C4A934200D097E004226B492000FFF7C7
:10374000D4FED9212000FFF763FE0023EB56F121C0
:10375000012B00D1CF392000FFF75AFE20000622AE
:103760006249FFF7C2FEA06A002800D19EE0616EA8
:10377000FFF77AF8012661E76DB287E725000020A0
:10378000353528560121270000F036FD0020363758
:103790003856012100F030FD002318210126EB5698
:1037A000534D4B435A575348D201121822643200EA
:1037B000EB185B689A4000232265FB564B435A572F
:1037C0004D49D2015118121862643200EB185B683F
:1037D000606A9A40130062650A6913430B6100280E
:1037E00006D0059B002B00D159E7FEF7C1FE56E736
:1037F0002700002033373100385600F0FDFC23004D
:103800000020343305931856310000F0F5FC0023F6
:103810001821FB5637484B435A57EB18D201121860
:10382000A26332005B689A40059BA2641B785BB27E
:103830004B435A57ED186B682F499E40D2015118DF
:10384000E6640B691218B343E2630B6127E7606A11
:10385000002803D0A16DE26DFEF7B2FE626C616DCF
:1038600013688B43136042E7244A93420ED12449E4
:1038700003222000FFF739FE0023EB56CF21012B56
:1038800000D130392000FFF7C3FD5AE71D4A9342AB
:1038900000D056E71C4903222000FFF726FE002334
:1038A000EB56AF21012BEDD19F39EBE7626C616DD7
:1038B0001368606A0B4313600126002800D1BDE63F
:1038C000FEF79AFEBAE6049B002B00D0EAE60BE76F
:1038D000A8D60000E8D30000F0D80000F4D800001B
:1038E000F8D800008000200002D90000FCD80000B9
:1038F00014D9000010440041004400418000400001
:1039000006D900006000100009D90000F0B51400CD
:1039100005AA1688002C41DB0A25425FA2423DDD44
:10392000002902DA5B1800211BB20822855E5A18B2
:10393000AA4201DD6B1A1BB2002B2FDD0727E2170D
:103940003A401219D2105543C26A01203C40A040AF
:1039500069185218C0B2012E0CD0002E13D0022EBE
:103960001CD1013B1BB2591C18D011784140117079
:103970000132F6E7013B1BB2591C0FD0117801430D
:1039800011700132F6E7C043C0B2013B1BB2591CB3
:1039900004D01178014011700132F6E7F0BD00004B
:1039A000F0B505AC2588002976DB0824065FB14216
:1039B00072DA002A02DA9B1800221BB20A27C45FBF
:1039C000D718A74201DDA31A1BB2002B64DDD2B2C7
:1039D000DCB2D30873435918C36A591807231A4035
:1039E0001FD001339A1A314BD2B29B5C944254D20D
:1039F000FF26171B3E413340012D06D0002D08D075
:103A0000022D49D10E78734001E00E7833430B70DC
:103A100002E00E789E430E7094423DD30826835FE9
:103A2000C918A31ADBB2072B22D9022D10D11A0014
:103A30000C78083AE4430C700825445FD2B20919A7
:103A4000072AF5D80722134026D0194AD35C19E07B
:103A50002C00621E94411A006442E4B20C700827E4
:103A6000C65F083AD2B28919072AF7D8072213404D
:103A7000002B11D00E4AD35C012D06D0002D08D0AA
:103A8000022D09D10A78534001E00A7813430B70E4
:103A900002E00A789A430A70F0BD012DB5D0002DDE
:103AA000B7D0022DAED08919BBE7C046E0D80000E0
:103AB000E8D8000037B5140006AA1588827E022ACD
:103AC0000DD0032A18D0012A11D1E2430489A41889
:103AD00024B20A0000952100FFF762FF0BE0E243E9
:103AE0004489C918A418028924B2511A09B2009550
:103AF0002200FFF70BFF37BD4289C918511A09B2DE
:103B0000E7E737B5140006AA1588827E022A0DD091
:103B1000032A18D0012A11D10289E418141B24B2F7
:103B20000A0000952100FFF7F1FE0BE0CA4301896E
:103B3000E4188918428909B2141B24B200952200A6
:103B4000FFF72EFF37BDCA434189891809B2E7E75D
:103B5000F7B50400806A002848D0216EFEF784FE85
:103B600005224C492000FFF7C0FC218920000139C3
:103B7000C9B2FFF74DFC07210A23E25EA06A0732B3
:103B8000D3170B409B182289DB1053439BB2009341
:103B9000E66A002840D0270030373978FEF772FEF9
:103BA000A06A4021036801251B689847009BA06A12
:103BB000013B9BB200931A00374B9A4223D0FF2D52
:103BC0000BD1FEF7D4FE3978A06AFEF75BFEA06A3F
:103BD00040210368FE3D1B689847A06A317803685E
:103BE00001351B689847EDB20136DFE7606A0028AF
:103BF00003D0A16DE26DFEF7E3FC626C616D1368AA
:103C00008B431360ACE7FEF7B2FEA06A002836D003
:103C1000616EFEF729FEF7BD226C216D13680196D7
:103C20000B431360009B013B9BB200931A001A4B9D
:103C30009A42EAD0019B606A1978002805D0FEF705
:103C4000EFFC019B01330193ECE708208025E36B37
:103C5000A26BA76C16680D420ED0374317601E6822
:103C6000E76C01383E431E601E68E76C6D08BE437A
:103C70001E600028EDD1E4E7BE431660EFE7626CFA
:103C8000616D1368606A0B4313600028C3D0FEF7B0
:103C9000B3FCC0E70CD90000FFFF000010B50248DC
:103CA00002F027FA10BDC046E005002013B5124906
:103CB000124800F0E3FC1249124800F0DFFC124900
:103CC000124800F0DBFC1249124800F0D7FC124CFD
:103CD0001249200000F0D2FC1149124800F0CEFC3D
:103CE00000230193013300930722053321000E487E
:103CF00002F06EF913BDC046000800421C08002007
:103D0000000C00422008002000100042240800207F
:103D100000140042280800202C080020001800424F
:103D2000001C004230080020E0050020FEE70000F3
:103D3000034B10B51B68002B00D0984710BDC04640
:103D40003408002070B50F490F4CA14204D100F097
:103D50008DF802F0A5FAFEE70C4D00238D42F6D057
:103D6000CA18E818A24205D3094B8242EFD009498C
:103D7000002204E0006804331060F1E704C38B42C2
:103D8000FCD3E4E700000020900200207CDF00006C
:103D900090020020300E002010B500F064F80028DA
:103DA00001D100F055F810BD014B18607047C046B6
:103DB00034080020014B18687047C04638080020BE
:103DC000F7B51348012284461249134C8E68636884
:103DD00005689B0E1340019288686268019F920EED
:103DE0003A4067463F6893420ED1BD420CD18642AD
:103DF0000AD35B19FA254868AD00861B07486B4358
:103E00007043000DC018FEBD3D0013000600E3E73F
:103E10003808002010E000E000ED00E055550000FB
:103E200070B5041E10D0FFF7CBFF050000F01AF8A4
:103E3000FFF7C6FF054B401B9842F7D9FA23013C18
:103E40009B00ED18002CF3D170BDC046E7030000C5
:103E500010B5034A13680133136000F0D1FB10BDA5
:103E60003808002070470020704700001E2270B5FF
:103E700046484749436893431C3A13434360082329
:103E80008C6923438B61434C434B9C829C8A144333
:103E90009C82DC681442FCD00124404A14701578DE
:103EA000254203D055786DB2002DF8DB01249460D3
:103EB000547864B2002CFBDB394C5460547864B203
:103EC000002CFBDB8224E4015480547864B2002C83
:103ED000FBDB02249C840E34DD682542FCD0314C8F
:103EE000DC621024DD682542FCD09D8C2E4C2C43D6
:103EF0009C841024DD682542FCD002249D8C802601
:103F00002C439C844024DD683542FCD0DD6825428A
:103F1000F9D01024DD682542FCD000249460547848
:103F200064B2002CFBDB214C5460547864B2002C4A
:103F3000FBDB1C6A1E4D2C4080251C621C6AAC43B6
:103F40001C62032393601B4B536053785BB2002BBE
:103F5000FBDB0023FF240B72174A4B728B72CB7270
:103F6000164B1A60164B174A1B6811689A065B01BC
:103F7000C90E2340520F12020B431343124A1385FA
:103F8000802342681343436070BDC0460040004137
:103F9000000400400C06000000080040000C004037
:103FA00001050100B905FF7D040A000000070300B8
:103FB000FFFCFFFF03060100006CDC021400002080
:103FC000246080002060800000400042FA212D4BD8
:103FD00010B51868890002F055FA2B4B0138984249
:103FE0004FD82A492A4A4860C020136A00061B029B
:103FF0001B0A0343136200238B6007330B6080218D
:10400000136A09061B021B0A0B431362FC22214B95
:10401000196A0A431A62FF22196A12020A431A62D3
:10402000A022196AD2020A431A621B4B1C005A785A
:1040300052B2002AFBDB194A5A80194B1A00597EEA
:10404000C9090129FBD0C821890099800521D970AF
:10405000537EDB09012BFBD0C02300205B011361E1
:10406000907000F023F863785BB2002BFBDB0D4B04
:104070000D4A6380D379DB09012BFBD041235370B8
:1040800010BDFEE714000020FFFFFF0010E000E07D
:1040900000ED00E000040040000C00401E40000065
:1040A0000040004221400000004800421F4900B586
:1040B0000B004A7ED209012AFBD001380A282FD8EA
:1040C00002F0D6F91B2E2E2E2E2E062E2E24110097
:1040D0001A6917490A400F211A615A788A43110058
:1040E00001220A4310E01A6911490A400F211A619E
:1040F0005A788A4311000322F3E71A690C490A40EF
:104100000F211A615A788A435A7000BD1A6908490A
:104110000A400F211A615A788A4311000222E0E70F
:10412000F022196912050A43F3E7C0460040004235
:10413000FFFFFFF010B50121040000F0DBF8002CB8
:104140000DD1284B1900DA79D209012AFBD00220BF
:104150001A7882431A70CB79DB09012BFBD02249F4
:104160000B004A7ED209012AFBD0182044431F4885
:104170000A6900191F24007CA243204002430A61FF
:104180005A7ED209012AFBD0022219780A431A70FA
:104190005A7ED209012AFBD00222197B0A431A73E4
:1041A00001221A765A7ED209012AFBD00222197BFB
:1041B0000A431A731A7ED207FCD5588B80B25A7EF6
:1041C000D209012AFBD002211A788A431A705A7E3A
:1041D000D209012AFBD0064B1A68064B196800F079
:1041E0007FF810BD004800420040004214D9000092
:1041F0001C00002018000020182310B50824434399
:10420000134AD0180457013412D001249A56436837
:104210009C4003290CD808000E49D2015218D3182B
:10422000403302F025F90210060B02211970546088
:1042300010BD0621197054609461F9E706211970C8
:1042400054605461F4E7022119709460F0E7C046AD
:1042500014D90000004400411823F0B50824584345
:10426000114A13181C5701341BD0012635005F6812
:104270008356BD400D4ADB019A18906805420BD168
:104280000C00601E8441D21940321078344003364D
:10429000A400B04320431070044A9B18002901D1A8
:1042A0005D61F0BD9D61FCE714D900000044004150
:1042B000182310B50824434307490020CA1814578F
:1042C000013408D05B560549DB015B18186A536856
:1042D000D8400123184010BD14D90000004400410B
:1042E000914202D002D98A1AD0407047521A9040A7
:1042F000FBE700001822424370B52D4E0300B218B0
:10430000127A52B2140001320ED0481C00240C283C
:104310000AD802F0ADF8071F1F1F1F1F1F1F1F0B1A
:104320000B0B0B0001246442200070BD092905D14C
:1043300000211800FFF760FF0024F5E70A2901D1EA
:104340000839F6E700240B29EED10A391800FFF7E7
:1043500053FFE9E7182201205343F218F35655683A
:10436000144ADB016C089B18C9B228401C190028AC
:104370000ED00F203034227809010240114341222F
:10438000C9B25B192170403319780A431A70D3E718
:1043900022000F26303214785B19B4432143117088
:1043A00041224033197804000A431A70BCE7C04622
:1043B00014D9000000440041F7B506000D000C00C0
:1043C0008B180193019B671B9C4207D033682178AF
:1043D0001B683000984701340028F3D13800FEBD37
:1043E00070B5040008000D0005F07AF9236802009A
:1043F00029005B682000984770BD10B50B1E02D0E5
:10440000FFF7EEFF0300180010BD10B5FFF7F5FF32
:1044100010BD10B503681B68984710BDF0B58BB090
:104420006B461500002205330600DA770800012DDF
:1044300000D80A2509AC290002F0AAF8CAB2130074
:1044400037330700DBB2092902D813003033DBB25F
:10445000013C2370002FEED121003000FFF7CDFF8B
:104460000BB0F0BDF7B51E0008AB1B78310001930F
:10447000050033001000170003F040FF4B490028EF
:1044800014D10122740064085242494B38002100C3
:1044900003F034FF00280FD10122454B524238006F
:1044A000210002F085F9002806D142492800FFF7D3
:1044B00097FF04002000FEBDE0223F4B12063800AB
:1044C000310002F07FF9002801D03C49EEE7E022FC
:1044D0003B4B12063800310002F060F90028F4D19D
:1044E000002200233800310002F058F9041E07D0E2
:1044F0002D212800FFF78DFF802304001B06F618EE
:10450000002300202F490093019B009A934208D07A
:104510002D4B002202F02EFD009B0133DBB20093F5
:10452000F2E733003A0002F009FA0F00060002F049
:104530005DF90A22019001002800FFF76FFF009B40
:104540000419002BB6D0019803F02AFF02000B00DB
:104550003000390003F08AFB06000F0028001B49D9
:10456000FFF73EFF2418009B013BDBB20093FF2BBB
:10457000A0D0154B00223000390003F005F90F00E0
:10458000060002F033F90A22010001902800FFF72B
:1045900045FF2418019803F003FF02000B003000D0
:1045A000390003F063FB06000F00DCE7ACDA000023
:1045B000FFFFEF7FB0DA0000FFFFEF41B4DA000049
:1045C000FFFFEFC10000E03F00002440B8DA000028
:1045D00037B51D00069BDBB200932B00FFF742FFAF
:1045E0003EBD0000014B18607047C046200000200F
:1045F0000122024B52421A607047C0462000002040
:10460000164A10B51368591C26D0013B1360002BC5
:1046100022D172B6124B134A0433934213D9124A71
:1046200001211000147D0C42FCD02021148BFF319D
:104630009B085B0021431183D3610C4B1380012342
:10464000027D1A42FCD0BFF34F8F094B094ADA6052
:10465000BFF34F8FC046FDE710BDC04620000020CD
:1046600000200000030200000040004102A5FFFFFF
:1046700000ED00E00400FA0510007047016070478B
:104680009446F0B59E1E721E9641624605689207DA
:104690002F6836063A4332432A60072505AC247852
:1046A0000068A4012940214342680024022B00D065
:1046B0005C03114321434160F0BD30B5C025036860
:1046C000AD031C6812052A402243C0240904A40239
:1046D00021401143196003685A6814435C6030BD7F
:1046E0000123026811680B43136003681A68D2073C
:1046F000FCD4DA69D207F9D4704702230268116842
:104700000B4313600268D3699B07FCD470470368AE
:104710001A7ED20702D41A7E9207FCD57047002277
:1047200003685A8370470368187E4007C00F7047BC
:104730000368187EC0097047802302685B42117EBF
:104740000B43137670470368588B8007C00F704780
:1047500002230268518B0B43538370470368187E12
:10476000C007C00F70470368188DC0B27047036858
:104770001A7ED207FCD589B2012019857047012223
:1047800003689A757047012203681A757047012300
:10479000026811680B43136003681A68D207FCD4DF
:1047A000DA69D207F9D470470223026811680B4313
:1047B00013600268D3699B07FCD470470368DA6909
:1047C0009207FCD402211A688A431A607047026873
:1047D000936A5B0A5B021943916203681A7E52076F
:1047E000FCD5986AC0B2704710B54900044801F082
:1047F00049FE80B2002801D0013880B2C0B210BD9D
:10480000006CDC0270B54B080C00012105680B4000
:104810000C402E6824075B07234333432B601100B1
:104820000468FFF7E1FF207370BD0123026811687F
:104830000B43136003681A68D207FCD4DA69D20705
:10484000F9D470470223026811680B4313600368B0
:10485000DA699207FCD430215A8B8A431100102266
:104860000A435A830268D3695B07FCD4704702216C
:10487000026813688B4313600268D3699B07FCD4FA
:10488000704780230268DB02116851680B43536054
:1048900070470000036803491A685A680A405A6062
:1048A0007047C046FFFFFBFF032230B5036811408D
:1048B0001C68074D5A6809042A40E4061143640F36
:1048C0005960052C03D10268D3695B07FCD430BD65
:1048D000FFFFFCFF30B503680400588B8006800F93
:1048E000022814D05D8B0020AD06AD0F032D2ED015
:1048F000588B800705D55D8B0020AD06AD0F012DCF
:1049000025D100205D8BAD06AD0F85421FD048003C
:10491000596A1043C90AC0B2C902014359622368E7
:10492000002A08D11A7ED207FCD5588B4007C30F46
:10493000012058400BE0187E8007C00FF5D11A7E89
:10494000D207F8D5C022596892020A435A6030BD96
:104950000368283319700368187EC007C00F03D19D
:104960005A8BD207F8D57047588B4007C30F0120E8
:104970005840F8E7036828331970036800201A7E4E
:10498000520704D5588B01234007C00F5840704789
:1049900003681868C006400F043843425841C0B24B
:1049A00070470368187E4007C00F70470368187E81
:1049B000C007C00F70470368588BC006C00F704710
:1049C0000368187E8007C00F70470368588B000784
:1049D000C00F704703681A68D206520F052A02D129
:1049E0001A7E9207FCD528331878C0B270470000B1
:1049F0000368104A934213D00F4A934212D00F4AD1
:104A0000934211D00E4A934210D00E4A93420FD0D7
:104A100001200D4A4042934201D1063040B2704716
:104A20000020FBE70120F9E70220F7E70320F5E784
:104A30000420F3E700080042000C0042001000428E
:104A40000014004200180042001C0042F8B5FFF7B5
:104A5000CFFF00282CDBC3001C48FF22C018052311
:104A60000479C35603201840C0008240C021D243BD
:104A70008140002B1DDB1F2501201D40C026A840C2
:104A8000134D7600A851C0269B089B005B19B60009
:104A90009F593A401143995128603F232340802475
:104AA000E4011C430B4B5C805A7852B2002AFBDBBA
:104AB000F8BD0F200340083B07489B089B001B18CC
:104AC000D86902401143D961E7E7C046BCDA00006B
:104AD00000E100E0000C004000ED00E0F8B504004B
:104AE0000F0016001D00FFF7B1FF2000FFF7F8FDD3
:104AF0001C21BB000B4071072268090C0B4313609B
:104B0000842322689375012F1AD11021012E00D021
:104B100008390C4B69431868C00001F0B3FC072248
:104B2000216802408B895203DB04DB0C13438B8129
:104B3000226803049089DB0C400B400318439081EA
:104B4000F8BDC04614000020F7B50400019308AB7F
:104B50000D0016001F78FFF71AFE2000FFF776FF02
:104B6000C0223605920332400C261643C0222D0483
:104B700092021540072223683543BF072F431F6069
:104B8000019B216813401A0080239B0213434B6052
:104B90002268D3695B07FCD4F7BD0000F8B50400B8
:104BA0000F00FFF753FF2000FFF73FFE142223689A
:104BB00079001A600C4B25681E68300001F062FC19
:104BC0000A490400300001F05DFC7D23FA215843BE
:104BD000C90001F057FCFF23241AE868053C1C407B
:104BE00098430443EC60F8BD1400002040420F00DD
:104BF0003F20704713B56B460268D971073354687C
:104C000019000122A04716BD10B50221006900F06D
:104C100007FD034B1B6801335A1E9341181810BD42
:104C20007400002010B50321006900F00FFD10BDD5
:104C300010B50321006900F0D7FC10BD10B5054C7C
:104C400023685A1C04D103685B69984703002060FD
:104C5000180010BD74000020074B0200186810B542
:104C6000411C03D0012252421A6010BD022110697A
:104C700000F0D6FDF9E7C0467400002010B513001F
:104C8000094A0400D079C0B2002805D1627E002A0A
:104C900002D00123636006E00A002069032100F0CE
:104CA000CDFD0028F5D010BD2800002010B50378F8
:104CB0004222023303700249024800F06BFE10BD2D
:104CC000300000205808002010B501780200437819
:104CD0000020A12908D1212B05D107221649174808
:104CE00000F058FE012010BD2129FCD1202B13D14A
:104CF00007221149114800F0EDFC96220E4BD2001C
:104D0000196891420ED10124D87904400AD1FA20C1
:104D1000FFF768FC0020E6E7222B06D19278064BCD
:104D2000DA71EAE7FFF764FCF4E7232BDBD1528862
:104D3000034B1A60D7E7C04628000020580800201F
:104D400024000020FA220021054B92009A60054AB7
:104D5000596008321A60044A19761A617047C046D1
:104D60003C080020ECDA000058080020704770472B
:104D700070B50F26CB1D013902003240D5B22C0090
:104D800000093034092A00DD07341C70013B8B42D6
:104D9000F2D170BDA02110B50400490001F063FB01
:104DA000200010BDF8B5032908D1304B8000C05851
:104DB000002802D003689B689847F8BD822919D162
:104DC000C3B22B4D5A01AA1891692A4C80010C409C
:104DD000C02189052143916127490833401870217A
:104DE000506128685B011A5C8A43110030220A4333
:104DF0001A54E2E70029E0D1C026C1B21C4C4B0195
:104E0000E3189A681B4DB6052A4032439A601B4A44
:104E1000800182185A600A0007272468083252016C
:104E2000115DB9430F000121394311559F691249A2
:104E30003D4040182E439E6158617020115D8143B2
:104E4000080010210143115599680D48A218084027
:104E500080214903014399609968890B890399600E
:104E6000402311790B431371A7E7C0465C0800206B
:104E7000100D0020FFFFFF8F84080020440A00204F
:104E8000FF3F00F0EFF3108303600123436072B62D
:104E900070470368002B02D162B6BFF36F8F704773
:104EA000F7B50500FC35EB690600002B18D19627F5
:104EB0007F00C45D6846FFF7E5FF019BE4B2013B5C
:104EC00002D3F45DE4B2FAE768460193FFF7E1FF2D
:104ED000002C01D10020FEBDE86AAB6AC01AFAE7D7
:104EE0006846FFF7CFFF9E220024019B5200013B42
:104EF00002D3B45CE4B2FAE768460193FFF7C9FF56
:104F0000002CE7D0E86BAB6BE8E7000030B54468F5
:104F1000FC3043698069DBB25A01A2189168094DDF
:104F20008004294000090143916091680833890B8E
:104F30008903916022685B01D318402219790A43E2
:104F40001A7130BDFF3F00F0F7B50500FF21FC35B9
:104F50006A6943680A401B68083252019A18D3797B
:104F60000400DB0754D50126D6716B6962680B40DB
:104F70005B01D318286A9A689204920C002822D107
:104F8000EA62EA6A002A40D06A6B2E6268465A607A
:104F9000FFF778FF9E273E21019B7F00013BFF31F9
:104FA0005A1C2ED096225200A654E25D581ED2B250
:104FB000002A05D0665468460193FFF76AFFF7BDE3
:104FC00062540300ECE7EA63EA6B002A1DD000227A
:104FD0002A626A6A68465A60FFF754FF96273E21A4
:104FE000019B7F00013BFF315A1C0AD09E225200D8
:104FF000A654E25D581ED2B2002ADBD162540300EF
:10500000F2E768460193FFF744FF2000FFF77EFFB9
:1050100063681A686B69DBB208335B01D3187F22BF
:10502000DA71CCE7F7B5070068463C00FFF72AFFC6
:105030000026FF22019BFC34013B0DD3E06821696F
:10504000884204DBE6682069961B3618F4E7266977
:10505000E168761A013EEFE768460193FFF719FF12
:10506000E3696846002B52D1FFF70CFF9621019BA4
:105070004900013B5A1C0CD07D5C5A1EEDB2002D3C
:1050800005D168460193FFF704FF2800FEBD130019
:10509000F0E7684601930025FFF7FBFEFF21A36AB6
:1050A000B54214D0E26A9A4211D95A1CA262626ACD
:1050B000D3181878E36822690133C0B20B409342D9
:1050C00003D0E268BA181072E3600135E7E7E26ADC
:1050D0009A42DAD10023A3620133E3616846962441
:1050E000FFF7D0FE64003E220021019BFF32013B0E
:1050F000581CC6D03955B85C5E1E002805D0B9547E
:1051000038000193FFF702FFEDE73300F0E7FFF708
:10511000B9FE9E21019B4900013B5A1C06D07D5CD3
:105120005A1EEDB2002DACD01300F6E7684601938D
:105130000025FFF7AEFEFF21A36BB54202D0E26B64
:105140009A421DD8E26B9A429FD100236846A3631E
:10515000E3619E24FFF796FE64003E220021019B3E
:10516000FF32013B581C00D18BE73955B85C5E1EFD
:10517000002817D0B95438000193FFF7C7FEECE7B9
:105180005A1CA263626BD3181878E3682269013352
:10519000C0B20B40934203D0E268BA181072E360C9
:1051A0000135C9E73300DDE710B50400FFF73AFF2A
:1051B0002300FC331969DA68914203D01B69E418B3
:1051C000207A10BD01204042FBE710B50400FC34FA
:1051D000FFF728FFE0682369C01A01D50130FF30CE
:1051E00010BDF0B585B0019200910500FFF71AFFE0
:1051F00002A8FFF747FE01200024FF26039B404240
:105200005A1E531C1FD02B00FC3301998C4218D21C
:10521000D9681F69C91B01D50131FF31002910D0A0
:105220001969DF688C460100BC4506D019691F6901
:10523000691801373740097A1F61009F39550134D9
:10524000E3E7013ADDE702A80392FFF722FE200020
:1052500005B0F0BD37B56B46DC1D00230D00200006
:105260002370FFF723FD2B681818286001F09AF8C7
:10527000210001F053F82B681818286020783EBDF3
:1052800002220B0010B593430C00012B0BD10D4BE8
:1052900008341B6864011C19802321795B420B438D
:1052A0002371E27110BD01F07DF8210001F06AF870
:1052B0000028F7D0034B08341B6864011C197F23B6
:1052C000E371EFE7100D002070B50024374B01218A
:1052D00005000B201C70FEF78FFF01210B20FEF74D
:1052E000BBFF334B01210C201C70FEF785FF012111
:1052F0000C20FEF7B1FF20232E4A0F20D1690B436B
:10530000D36101222C490B7813430B702B4B197876
:105310008143197006211C782143197028490C78A3
:1053200022430A701A7802401A70602219780A43E0
:105330001A70244B244A5A805A78D209FCD1234847
:10534000FEF732FD224C7F26200001F03DF82000C0
:1053500001F052F80C2108232068C2788A431343D5
:105360000322C3702068C3789343013A1343C37088
:1053700020680378334003700423206806783343A1
:105380000370206803898B430381C1201149800089
:105390000B581B021B0A0B5080230B6023681978E3
:1053A0000A431A7001232B7070BDC0467908002093
:1053B0007808002000040040584400413C4400416B
:1053C00059440041000C004006400000055E00000A
:1053D000100D002000E100E00078002810D001212D
:1053E000084B1B681A898A431A810822198B0A43C1
:1053F0001A830422198B0A431A830022024B1A6073
:105400007047C046100D0020080D002010B50F4A4F
:1054100093699B0B9B03936113680222FF331A72FB
:105420009879823A02439A711A7A9207FCD57F24BE
:10543000074A2140937A0800A343190080230143BF
:105440009172917A5B420B43937210BD100D002054
:105450000050004110B50B790C00002B0CD1080056
:10546000FFF732FC002801D0012010BD094A9369E2
:105470009B0B9B039361F7E700F094FF210000F082
:1054800071FF0028F0D1034A93699B0B9B03936142
:10549000EBE7C046100D0020F8B50D00832A19D1A6
:1054A000CBB2434C5A01A21891694248AD01084061
:1054B000C0218905014391613F4920686D18702121
:1054C000083355615B011A5C8A43110040220A438C
:1054D0001A54F8BD022A65D1384B8A00D0580028EA
:1054E00002D003689B699847A020400000F0F0FEBE
:1054F00080270600324B7F0003602D4B0021436064
:105500003A00083003F06BF8340096220023FC3494
:105510005200E360A36223616561E361A7612362D6
:10552000E362B3541032A363E363B3543E22380002
:10553000FF32B35403F036F86062380003F032F8FB
:105540002B006063FF201A4903405A018A189168B2
:10555000184F08330F40C021890539430727916050
:10556000134A5B011168AD005A5CBA43170003226D
:105570003A435A5461697368014049015918636A92
:105580004B60736862691B68024052019B180122DC
:105590001B18997A30000A439A72FFF7B7FC074B41
:1055A000EE5096E711002800FFF7FCFB91E7C0469C
:1055B000100D0020FFFFFF8F840800205C080020F2
:1055C0001CDB000070B505000124064BA200D25878
:1055D000002A06D0210028000134FFF75DFF0A2CC5
:1055E000F3D170BD780000200B4BCAB20B48890183
:1055F000C9185301C318596199690832890B890385
:105600009961036852019A180223D3715179823B40
:105610000B4353717047C04684080020100D0020D2
:10562000084B8A00D05810B5002803D00368DB6807
:10563000984710BDC9B2044B4901591888688004C5
:10564000800CF6E75C080020100D002010B50C005F
:10565000FFF7E6FF00280CD0064BE4B21B680834C5
:1056600064011C19802362795B4213436371022336
:10567000E37110BD100D002070B5CBB2124A134873
:105680005C0189018918021951609168104D083335
:105690000D40802189022943402591609168890B42
:1056A0008903916001685A018A181679354315718A
:1056B00095796D06FCD55B01C918CB79DB07FCD564
:1056C00000198068C0B270BD440A0020100D00208F
:1056D000FF3F00F070B5140040220B4B0D001B681B
:1056E000FF3359790A435A710021FFF7C5FFA042E1
:1056F00000D9200000230549A34203D0CA5CEA5424
:105700000133F9E770BDC046100D0020440A0020A7
:1057100010B5C9B20B484901421893689B049B0C11
:105720003F2B0BD99468403B9B04A40B9B0CA40318
:105730002343936041188868C0B210BD93689B0BE7
:105740009B03F6E7100D0020F0B51C002F4B85B031
:105750001B6806000D000192002B54D02C4F3978A5
:10576000C9B2002902D10C20FEF776FD64233B70FC
:10577000284BAA00D058002808D0036822005B6894
:10578000019998470400200005B0F0BD29003000C1
:10579000FFF746FF844204D929003000FFF740FF9D
:1057A000040029003000FFF7B3FF0121EBB21A4FCC
:1057B00003935B010293029A3B6801989B18FF33A5
:1057C0005A7A0A435A72154BA901C918220002F0ED
:1057D000FDFE002CD7D029003000FFF721FF002864
:1057E000D1D14021039B3A6808335B01D318187963
:1057F000014319710121D971029BD318FF339A7AA1
:105800000A439A72BFE701246442BCE7080D0020F6
:10581000780800205C080020100D0020440A0020B9
:1058200013B56B46DC1D22000123FFF78DFF012815
:1058300001D1207816BD01204042FBE7F0B51E00E3
:105840003A4B85B01B680F000192002B3FD080239C
:10585000DB019E423BD8364C2178C9B2002902D1E7
:105860000B20FEF7F9FC642300252370314BBA01AD
:10587000D3180293002E2CD02F4B1B680393FF23C9
:105880003B401C0000930834039B64011C19A3795E
:10589000DB0921D0294B2A49186800F0F3FD294B78
:1058A0001721584300F0EEFD274BE279920713D4FD
:1058B000DA5D002A01D10138F7D20122DA55009BC6
:1058C0005A011D4B9B189A69920B92039A6101250C
:1058D0006D42280005B0F0BD00221B4B3400DA55A4
:1058E000402E00D9402422000199029802F06EFE59
:1058F000009BA1045A01104B890C9B18029A2D1988
:105900005A619A69361B920B92030A439A61009B73
:10591000039A08335B01D3180222DA715979823A6B
:105920000A435A71019B1B190193A3E7080D00203C
:105930007908002084080020100D002014000020A9
:1059400040420F00701101007B08002070B50D006F
:105950001C000D4BAE01F61811003000220002F0C1
:1059600035FEEDB209496D014D196E61AB69084A0A
:1059700020001340AB61AB69A2049B0B920C9B030C
:105980001343AB6170BDC04684080020100D002099
:10599000FF3F00F0F7B5104B01901B780F0015008A
:1059A000002B0CD10D4B16001C78002C09D00C4E8E
:1059B0000C4834882018641902F008FE348028004E
:1059C000FEBD002EFBD03A19330000210198FFF7ED
:1059D000BDFF2418361AF4E7040C0020050D002042
:1059E000060D0020050C0020F8B5002000AF0E00C9
:1059F0001500012A27D9D31D6A46DB08DB00D31A1C
:105A00009D46080003F06CFE6C4603230222002131
:105A10000130400020706370AA420DD23078002817
:105A20000AD0531CDBB20136A0549D4203D002328F
:105A3000E154D2B2F0E72A0021000448FFF7AAFFA0
:105A4000431E9841C0B2BD46F8BDC046580800206C
:105A5000F0B50024012685B0184B0F0069461E7072
:105A600005000094FFF7F6FB154B01A90B806A3B7C
:105A7000FF3BCB716E3B0B72009B8C7109334B80EB
:105A80000E4B4E7108711C703A00092F0FD00D4F4C
:105A900009223E700C4E280000943480FFF77AFFF4
:105AA00069462800FFF7D6FB328808493C70280079
:105AB000FFF770FF012005B0F0BDC046040C0020C8
:105AC00009020000050D0020060D0020050C002035
:105AD000F0B5CF7893B005000E00022F09D1C98828
:105AE0002D48FFF7B5FF441EA041C4B2200013B0FB
:105AF000F0BD00F057FC310000F024FC002803D07A
:105B0000C417241AE40FF1E7012F0FD1F288082AF5
:105B10000AD02249112A13D8D2B2002A10D0280064
:105B2000FFF738FF0124E1E71D49F5E70400032FE3
:105B3000DCD1B378002B05D1F2881A49032AEBD9BE
:105B40000A78ECE7022B06D1B27917492800FFF753
:105B50004BFF0400CAE7012B02D1B2791349F5E7E4
:105B6000032BC3D1124B01A91868FFF701F9114BA0
:105B700003A91868FFF7FCF80F4B05A91868FFF791
:105B8000F7F80E4B07A91868FFF7F2F86B460533D4
:105B9000DC77B27901A9D9E75808002054DB00006E
:105BA00066DB00004ADB00003CDB00004EDB00004F
:105BB0000CA0800040A0800044A0800048A080008D
:105BC00037B5040048780D000B2810D800F050FCC1
:105BD000061B0F2B0F40456D494C6669097801AAD9
:105BE000002906D1022311802000FFF7AFFE01201B
:105BF0003EBD002313802E4B1B78012B00D1137068
:105C000002230021F0E78A780023012A03D101AAA8
:105C10001380284BF0E7264A1370274A93699B0BA1
:105C20009B039361E3E78D78012D06D10021214B81
:105C300001AA1D7011702B00D6E70120002DD7D1CD
:105C40001B4B1D4A187093699B0B9B039361CFE715
:105C500089782000FFF7DAFBC9E72000FFF738FF5B
:105C6000C6E70123154ACCE70B780020DB06BFD13D
:105C70002000FFF7A7FC2A20AA78104BFF301A60FB
:105C800002230D4A11680C5C23434A240B54FF3451
:105C90000B5D2938FF3803430B55D4E70123084A2D
:105CA000AFE78A78064B1A60B7E70020A0E7C04646
:105CB0007A08002082080020100D0020080D002026
:105CC0000C0D0020474BF7B51C780600002C7CD14A
:105CD000454D2B689B8B1B070ED521002000FFF73D
:105CE00061F82A6810231100FF31887A03438B7210
:105CF0003E4B1C60082393832B689A8B52071FD559
:105D000004229A833A4A1378002B0AD01378013B75
:105D1000DBB213701378002B03D101210B20FEF7A7
:105D20009BFA344A1378002B0AD01378013BDBB27C
:105D300013701378002B03D101210C20FEF78CFA8D
:105D40002B68FF331A7AD2061ED510221A7259799F
:105D500030320A435A716023274930000A781A42C8
:105D600034D1FFF72DFF2B68FF33002831D080227C
:105D7000997952420A439A711A7A520604D54022FE
:105D80001A72597A0A435A72012427002B681B8C15
:105D9000A343DBB20193019B23413B4212D023007A
:105DA0002A6808335B01D318DA79D20702D4DB7989
:105DB0009B0707D5114BA200D05800280DD00368CF
:105DC0001B6898470134082CE5D1F7BDFFF742FB6B
:105DD000C9E720210A4A9171CEE7E1B23000FFF70E
:105DE0004FFAEFE7050D0020100D0020080D0020F0
:105DF0007908002078080020440A00205C08002070
:105E0000FF50004110B50248FFF75CFF10BDC046CF
:105E100058080020014B024A1A607047100D0020FC
:105E2000005000410120704710B50368014A1B6A09
:105E3000984710BD130400000300FC33D9699A6928
:105E4000914203D0DB69C018007D704701204042B9
:105E5000FBE710B504000069FEF742FC22000023B6
:105E6000FC329361D36186229200A4186360A36020
:105E700010BDF02001403039484248417047F023BE
:105E80001B011940802306209B0099420AD0013350
:105E9000FF330130994205D0802302385B009942DC
:105EA00000D0002070470F2001400020012903D0BE
:105EB0000239481E8141481C704700008923F0B513
:105EC000182685B002919B000400C05C33000821B5
:105ED0004343324D1700EB185956FEF70BFA304B7F
:105EE0000821E05C33004343EB185956FEF702FAF1
:105EF0002C4BE25C0393022A09D11133E05CFF28AA
:105F000005D008214643AE197156FEF7F3F98A26EB
:105F1000B600A05DFF2819D00121FEF76DF9182207
:105F2000A35D21495A43AB56AD18DB0158188B21AC
:105F3000890060501D4901225B188C218900635043
:105F400069688A408D21890062501A600122029B93
:105F500011002069FEF7C2FD39002000FFF78FFF16
:105F6000390005002000FFF79EFF390006002000E1
:105F7000FFF77FFF33000090290020690122FEF720
:105F80007FFB0B4B2069E25C039BE15CFEF795FB1A
:105F90002069FEF7B2FB05B0F0BDC04614D9000081
:105FA000250200002702000018440041144400416B
:105FB00026020000802210B504005200002102F0E9
:105FC0000EFB23000022FC335A6020009A6010BDB3
:105FD000F7B51D0008AB1B780400009309AB1B78D4
:105FE0001600019300234360FA239B008360114B4A
:105FF0000F00083303601430FFF7DCFF20001D3072
:10600000FF30FFF7D7FF89236A469B002761E654DC
:10601000094B1278E554094B2000E2546A46084BBC
:106020001279E2548A22293BFF3B9200A35410329A
:10603000A354FEBD78DB000025020000260200000C
:10604000270200000300FC3359689A68914204DB80
:106050005A689868801AFF30704798685B68C01A61
:106060000138F9E710B51D30FF30FFF7EBFF10BD29
:10607000030070B5FC33D9699A69040091421AD0C3
:10608000DA698218157DDA690132D2B2DA618A23BF
:106090009B00E35CFF2B0CD020001430FFF7D2FFF5
:1060A0000A2806DD8C238D229B009200E358A2581B
:1060B0001A60280070BD01256D42E8E70300FC333B
:1060C00058689B68C01A01D50130FF30704710B581
:1060D000040020001D30FF30FFF7F0FF0028F8D14A
:1060E0002069FEF714FB10BD10B51430FFF7E6FF72
:1060F00010BD10B504000069FEF725FB002805D08F
:106100002069FEF730FB2069FEF722FB2069FEF7CD
:106110000AFB002820D02069FEF725FB2200FC3274
:106120009369D1690133DBB28B4203D09169611865
:10613000087593618A239B00E35CFF2B0CD0200041
:106140001430FFF77FFF092806DC8B238D229B008C
:106150009200E358A2581A602069FEF7FFFA00285F
:106160001AD020001D30FF30FFF7A8FF002822D0F2
:1061700086239B00E31899685A68914218D08E21B3
:106180009A684900A218515C9A680132D2B29A60AA
:10619000C9B22069FEF7EBFA2069FEF7C9FA0028B8
:1061A00005D02069FEF7C8FA2069FEF7B8FA10BDDD
:1061B00001214942ECE72069FEF7E5FAECE700002F
:1061C00070B5040000690D00FEF7C8FA00283ED142
:1061D000FF2686239B00E3185A68996801323240F3
:1061E0008A4223D1EFF31083DB070DD41E4B5B688B
:1061F000DB05DB0DEDD0103B5BB2002B0DDB9B080C
:10620000C0331A4A9B009B582069FEF7A7FA002862
:10621000DFD02000FFF76DFFDBE70F221340083BC4
:106220009B08134A9B009B181B68EDE75A680132D4
:1062300016409A68964205D08E215A684900A218E5
:1062400055545E602069FEF79AFA012070BD200067
:106250001D30FF30FFF732FF0028B9D12900206937
:10626000FEF785FAF1E7C04600ED00E000E100E04E
:106270001CED00E0FEE7704710B5FBF73FFFFCF7B1
:10628000EFF8FDF7EFFD034B002BF8D000E000BF67
:10629000F5E7C0460000000010B5FFF7EDFF000075
:1062A00010B5FDF793FE02F059F9FFF7E4FF012066
:1062B000FDF7B6FD054C2000FFF706F82000FFF7BC
:1062C0008BF8FFF7E9FF002010BDC04658080020FA
:1062D00010B502F067F910BD10B502F06DF910BDF0
:1062E00010B50200EFF3108172B60A4B186800284F
:1062F00001D10948186018688218EFF30884A24297
:1063000004D21A60002900D162B610BD01204042BB
:10631000F8E7C046140E0020300E002070B50E00C5
:1063200000254468002C0BD0236831005B682000F6
:106330009847002802DB2D18E468F3E701256D4239
:10634000280070BD70B50D004468002C08D023688B
:1063500029009B6820009847002802D1E468F4E7F0
:10636000200070BD70B50D004468002C08D0236873
:1063700029001B6820009847002802D1E468F4E750
:10638000200070BD70B50D004468002C08D0236853
:106390002900DB6820009847002802D1E468F4E770
:1063A000200070BD0121054A10B5136804480B4058
:1063B00003D1044C43600480116010BD180E00200E
:1063C0001C0E00200204000070B50400012304CC60
:1063D0000500117820000B43137080220021520029
:1063E00002F0FDF82B689A78D207FCD49A789207CD
:1063F000F9D45C6270BD00001F22144BF0B51B681D
:10640000590B9C0C9B01114014405B0F914200D131
:1064100005211F2C00D1023C072B00D1043B026850
:106420008F01158D0A491F262940394311850568BA
:106430003440298D0A00B24322432A85006819039B
:10644000028D044B13400B430385F0BD2460800094
:106450003FF8FFFFFF8FFFFF0B0010B50100180092
:1064600002F05EF810BD10B5FFF736FF10BD00005A
:1064700002B4714649084900095C49008E4402BCD7
:106480007047C046002243088B4274D303098B42F5
:106490005FD3030A8B4244D3030B8B4228D3030CF4
:1064A0008B420DD3FF22090212BA030C8B4202D396
:1064B0001212090265D0030B8B4219D300E0090ABE
:1064C000C30B8B4201D3CB03C01A5241830B8B42C7
:1064D00001D38B03C01A5241430B8B4201D34B03B0
:1064E000C01A5241030B8B4201D30B03C01A524115
:1064F000C30A8B4201D3CB02C01A5241830A8B429A
:1065000001D38B02C01A5241430A8B4201D34B0282
:10651000C01A5241030A8B4201D30B02C01A5241E6
:10652000CDD2C3098B4201D3CB01C01A524183099A
:106530008B4201D38B01C01A524143098B4201D3D4
:106540004B01C01A524103098B4201D30B01C01AFF
:106550005241C3088B4201D3CB00C01A5241830879
:106560008B4201D38B00C01A524143088B4201D3A6
:106570004B00C01A5241411A00D201465241104606
:106580007047FFE701B5002000F0F0F802BDC046FB
:106590000029F7D076E7704703460B437FD40022EB
:1065A00043088B4274D303098B425FD3030A8B42A7
:1065B00044D3030B8B4228D3030C8B420DD3FF2211
:1065C000090212BA030C8B4202D31212090265D0DF
:1065D000030B8B4219D300E0090AC30B8B4201D392
:1065E000CB03C01A5241830B8B4201D38B03C01AD9
:1065F0005241430B8B4201D34B03C01A5241030B50
:106600008B4201D30B03C01A5241C30A8B4201D300
:10661000CB02C01A5241830A8B4201D38B02C01AAB
:106620005241430A8B4201D34B02C01A5241030A22
:106630008B4201D30B02C01A5241CDD2C3098B4207
:1066400001D3CB01C01A524183098B4201D38B0184
:10665000C01A524143098B4201D34B01C01A524127
:1066600003098B4201D30B01C01A5241C3088B426C
:1066700001D3CB00C01A524183088B4201D38B0057
:10668000C01A524143088B4201D34B00C01A5241F9
:10669000411A00D201465241104670475DE0CA0FD0
:1066A00000D04942031000D34042534000229C4690
:1066B00003098B422DD3030A8B4212D3FC2289019A
:1066C00012BA030A8B420CD3890192118B4208D370
:1066D000890192118B4204D389013AD0921100E0D2
:1066E0008909C3098B4201D3CB01C01A52418309E6
:1066F0008B4201D38B01C01A524143098B4201D313
:106700004B01C01A524103098B4201D30B01C01A3D
:106710005241C3088B4201D3CB00C01A52418308B7
:106720008B4201D38B00C01A5241D9D243088B420D
:1067300001D34B00C01A5241411A00D201466346B0
:1067400052415B10104601D34042002B00D5494214
:10675000704763465B1000D3404201B5002000F053
:1067600005F802BD0029F8D016E770477047C0460B
:106770008446101C62468C46191C634600E0C046E5
:106780001FB500F099FF002801D40021C8421FBDA9
:1067900010B500F0F1FE4042013010BD10B500F020
:1067A0008BFF002801DB002010BD012010BDC0467A
:1067B00010B500F081FF002801DD002010BD012090
:1067C00010BDC04610B500F013FF002801DC00200A
:1067D00010BD012010BDC04610B500F009FF002813
:1067E00001DA002010BD012010BDC04670B50022A6
:1067F0000C4B04000D00FFF7EFFF002804D1200030
:10680000290001F097FD70BD064B002220002900F1
:1068100001F02CFA01F08EFD80231B069C4660449B
:10682000F1E7C0460000E04170B500283DD0C31735
:10683000C5185D40C40F280001F036FE9E22121AD2
:10684000962A07DCD2B2082833DD08388540680272
:10685000400A23E0992A0BDD052329001B1AD940A1
:1068600003001B339D402B005D1EAB4119430D00FF
:10687000052801DD431F9D402B000F490B406E078B
:1068800009D00F263540042D05D004335D0102D513
:106890009F220B40121A9B01580AD2B24002D20525
:1068A000400AE4071043204370BD0024002200206A
:1068B000F4E76802400AF1E7FFFFFFFB70B5041E32
:1068C00034D001F0F1FD9E22121A962A07DCD2B2D2
:1068D00008282EDD083884406002400A21E0992A09
:1068E00009DD030021001B3399404B1E994105230C
:1068F0001B1ADC400C43052801DD431F9C4023008C
:106900000D490B40650709D00F252C40042C05D0FC
:1069100004335C0102D59F220B40121A9B01580AD6
:10692000D2B24002D205400A104370BD00220020BE
:10693000F7E76002400AF4E7FFFFFFFBF0B54F46C0
:106940004646D6460C000903C0B5490A470F5E000B
:1069500039431F03DB0F9C4665007B0A570F1F431B
:106960006D0DE40F760DA146C000B846D200AB1BFA
:1069700064457BD0002B5FDD002E00D0A4E03E00FC
:10698000164300D112E15E1E002E00D09EE1871A50
:106990004346B84280410125C91A4042091A0B02F8
:1069A00000D431E149024E0A002E00D16EE13000E0
:1069B00001F07AFD0300083B1F2B00DD61E120227E
:1069C0003900D21A9E40D1409F400E439D4200DDC7
:1069D00051E15D1B6B1C1F2B00DD7CE12021C91ADE
:1069E0003D0030008F408840DD40791E8F413100EE
:1069F00007222843D940002507433A40002A09D0FE
:106A00000F233B40042B05D03B1DBB42BF417F42BF
:106A1000C9191F000B0200D426E26A1CC64B55059B
:106A20006D0D9A4200D106E1C44AFF080A4053079F
:106A300052023B43120B8EE0002B00D0B8E06B1CDF
:106A40005B055B0D012B00DC30E1871A4346B84241
:106A5000B641CB1A76429E1B330200D54CE13B0077
:106A60003343A1D100220024002570E0002B00DC7C
:106A7000E5E0002E00D183E0AF4EB54260D0802625
:106A800036043743B846382B00DC3EE14346134317
:106A90001F007A1E97413F188742804140420918E3
:106AA0000B0200D4B0E0A44B01359D4200D1C3E0FD
:106AB000A24A7B080A4001210F401F435108D30717
:106AC00007221F433A4099E79B4EB54238D08026B3
:106AD00036043743B846382B00DDDCE01F2B00DCE2
:106AE00030E11E004746203EF740BC46202B04D034
:106AF0004026F31A46469E403243170063467A1EEC
:106B000097411F43CCE0002B00D104E243461343DE
:106B100000D159E14B07C00818438023C9081B0363
:106B2000194208D04546ED081D4204D14346D0081D
:106B3000590708432900420FC9007F4D1143C00087
:106B40004B07CA087C49C00803438D4268D0120332
:106B50006D05120B6D0D002112031800130B0A0DA9
:106B600012051A43764B2D0513402B435B00E407B7
:106B70005B08234319001CBC90469946A246F0BD11
:106B80003E00164312D05E1E002E00D000E1871892
:106B90008742804141444042091801250B0233D508
:106BA000022585E764463300414610001D00C7E713
:106BB000002D00D0DAE00C000443F3D05C1C00D1BF
:106BC0009FE15D4CA64200D12FE1DB43382B00DD75
:106BD00066E11F2B00DD83E120240500E41A0F008D
:106BE000DD40D940A0404346A7405B1A441EA04167
:106BF00098462F433843171ABA42924143465242AD
:106C0000991A64463500CAE607223A40002A00D0A5
:106C1000F6E64B07CA084849FF083B438D4296D128
:106C20001900114300D19EE1802109030A43120398
:106C3000120B414D8FE71500002200238BE7002B3C
:106C400000D0C7E06B1C5F057F0D012F00DCF1E079
:106C5000394DAB4200D1B9E085180A00854289411F
:106C60004244494251180722CF076D082F43490873
:106C70003A401D00C2E607223049ED1A31403A4041
:106C8000BCE63E002838864000279FE6380001F029
:106C90000BFC20308EE6434613431F007A1E9741BB
:106CA000C71BB84280414042091A78E60E003B00FB
:106CB00006431343002D61D1002E00D0F4E0002BD9
:106CC00000D11BE164463900100039E71A4FBB427E
:106CD0007AD03300FFE630001F3DE840202B03D080
:106CE0004021CB1A9E4037437B1E9F41072207431A
:106CF0003A400021002589E7171A4346BA42B641B7
:106D0000591A76428E1B64464EE61F2B00DDADE01D
:106D100020264746F61AB740B9461700B246DF406C
:106D20004E463E4337005646B240561EB2411743C8
:106D30004246DA408918AEE6FF070000FFFF7FFFFA
:106D4000FFFF0F8020264746F61AB740B9461700C6
:106D5000B246DF404E463E4337005646B240561ECE
:106D6000B24117434246DA40891A99E77F4CA6425E
:106D70005BD0802424045B42214327E7002E0CD102
:106D8000002B00D1CBE0644639001000774DD7E6E8
:106D9000764FBB4218D0330075E6002B14D04B075A
:106DA000C00818438023C9081B03194207D0FC08F8
:106DB0001C4204D17907D0080843E14621004C4623
:106DC000420FC9001143C000684DB9E61D00002202
:106DD0000023C0E6002D5BD10D00054300D1E2E6A3
:106DE0005D1C00D1B0E0614DAE421FD0DB43382BBB
:106DF00071DC1F2B00DD96E020250F00ED1AAF405F
:106E0000B9460700AA46DF404D463D432F00554690
:106E1000A840D940451EA84188440743BF1897425F
:106E200092415142414435003AE6644635004146BC
:106E3000100085E60B000343002D00D063E6002B15
:106E4000F5D04346134300D17AE687188742804144
:106E500007224144404209183A400B0200D4D5E6CB
:106E6000434B01351940C9E5380069E61E00474625
:106E7000203EF740BC46202B04D04026F31A46465D
:106E80009E403243170063467A1E97411F4302E635
:106E9000364DAE42CAD080252D045B422943A6E779
:106EA0000843411E8841A6E6002B00D148E6871A18
:106EB0004346B842B641CB1A76429E1B33024BD5AD
:106EC000171A4346BA429241591A5242891A072266
:106ED00064463A4092E501430F00791E8F419DE7D9
:106EE0001C000F00203CE740202B03D04024E31A75
:106EF00099400843411E884138437CE60022002423
:106F000025E6171A4346BA429241591A5242891A43
:106F10006446350043E541461000144D10E68022DA
:106F20000024120380E61D000F00203DEF40BC4608
:106F3000202B03D04025EB1A9940084307006346F5
:106F4000781E87411F4369E7871897429B41414458
:106F50005B42C9183500A3E53B003343CED007227E
:106F600031003A4052E600231A00F4E5FF07000022
:106F7000FFFF7FFFF0B55746DE464E464546E0B57B
:106F8000834607000E03480085B092461C00360B6E
:106F9000400DCD0F002800D19DE0954B984239D08F
:106FA0008023F6001B041E43924A7B0F334399460D
:106FB000944603006344009300230026FF000293DD
:106FC00023031B0B98466300E40F52465B0D0194AC
:106FD00000D1B3E086498B4200D19EE04246D10009
:106FE000802212040A435146490F11438B468149BE
:106FF00052468C4600996344CB1A0021D20000937C
:107000002B0063409A460F2E00D905E17A4BB6005B
:107010009B599F465B463343994600D0B8E0022314
:107020000826002700900293CAE7CB463A0002994F
:107030000195019B9A46022927D0032900D180E2BD
:10704000012944D06D49009B8C4663441C00002CF0
:1070500038DD530700D013E2D2085B46DB0109D5C7
:107060005946674B19408B468021C9008C46009BCE
:1070700063441C00634B9C4207DC5B4664055F076E
:107080005B0217431B0B620D02E000230027584AE6
:1070900000211B031C0B0B0D1B05234314055A4A2F
:1070A000380013401C4353466400DB0764081C434C
:1070B000210005B03CBC90469946A246AB46F0BDC7
:1070C0000122524201231B1B382B00DCADE10022C0
:1070D00000230027DCE75B46334399465ED0002E51
:1070E00000D18AE1300001F0DFF903000B3B1C2BDB
:1070F00000DD7BE11D22D31A5A460100DA4008392F
:107100008E4013005F46334399468F403F4B002625
:107110001B1A00930023029352E7414653460B4348
:107120003B499B468C46009B634400935B46002B87
:107130003BD1022300221E43022161E74346134351
:107140009B4637D04346002B00D162E1404601F018
:10715000ABF903000B3B1C2B00DD53E10200414661
:10716000083A914088461D21CB1A5146D9400B0060
:1071700041460B439B46534693401A00009B2549CA
:107180009C46604403008C4663440093002137E72B
:107190000323B14600900C26029311E700230093CD
:1071A00001330426002702930AE70323C3461E4344
:1071B000032125E701331E430022012120E700239C
:1071C0009A46802300271B03094A61E7802349462A
:1071D0001B03194200D1E2E05946194200D0DEE01B
:1071E0000B431B0317001B0BA246014A50E7C04686
:1071F000FF07000001FCFFFFACDB0000FF03000005
:10720000FFFFFFFEFE070000FFFF0F800DFCFFFFEA
:1072100001F8FFFFF3030000D94500D9CBE000D10E
:10722000C6E03C0048460027009B013B00935B46BC
:10723000160E1B021E431302984633041B0C99467C
:10724000310C0191FFF7A4F94A4642430B04210C8B
:10725000050019438A4207D98919013D8E4203D896
:107260008A4201D9851E8919881A0199FFF790F978
:1072700009048C464A46210464464243090C030033
:1072800021438A4204D98919013B8E4200D8F1E09A
:107290002D041D43AB464346891A4246280C12046E
:1072A0001D0C5B46140C22001B041B0C5A43039458
:1072B0006B434443029568431B19150CEB189C4221
:1072C00003D980246402A44660441C0C15041B04EA
:1072D0002D0C20185D19814277D373D00C1AA24A65
:1072E0007D1BAF42BF419446009B7F426344E01B3D
:1072F0001C00864200D1DBE00199FFF749F94A46BC
:1073000042430B04290C070019438A4207D9891903
:10731000013F8E4203D88A4201D9871E8919881AF3
:107320000199FFF735F909044A46894629044D4673
:107330004243090C030029438A4207D98919013BBA
:107340008E4203D88A4201D9831E89193F04891AC3
:107350003A00039F1A43380013041B0C584381461C
:107360000298150C6F43434345434846000C84463E
:10737000DB1963449F4203D9802040028446654460
:1073800048461F0C00041B04000C7D191818A94264
:1073900000D284E000D17FE001231A4357E6802326
:1073A0004A461B0313431B031B0BAA466F4A6FE697
:1073B000BA4200D935E74B46DC0758087B081C4326
:1073C000FF0734E70024AF4289D247444745A44130
:1073D0005B466442A4196418013BA6421ED2A04237
:1073E0006DD800D1B6E0241A9B4678E703005A46D0
:1073F000283B9A400027914688E6584601F054F809
:10740000203072E603005246283B9A409346002201
:10741000B4E6504601F048F820309AE6A642E2D1A0
:10742000B845DCD9341A9B4659E71F2B65DC504C14
:107430000099A4465C46614408008C4011008240DB
:10744000D940501E82410C4314435A46DA4013007F
:10745000620709D00F222240042A05D02200141D01
:107460009442894149425B181A0262D501220023E5
:1074700000270DE68A4200D80AE7831E891907E72C
:107480000F231340042B00D1E6E5171D97429241CC
:1074900053429B44FA08E0E5002800D1D7E5711873
:1074A000531EB14227D3A94215D358D01A0073E70F
:1074B000002B00DC04E6012300229B44CDE50223DF
:1074C0004744474589415B429C46494289190C190A
:1074D000E344241A03E743465F0047459B41B8460F
:1074E0005B429E19023A8919A94200D054E74045EF
:1074F00000D051E7ABE51A00F6E71F215F4649428D
:107500000C1BE740202B07D01A49009B8C46634494
:1075100018005B4683401A43501E82413A430727B6
:107520000023174009D00F21002311401400042923
:1075300095D122005F075B021B0BD2081743002284
:10754000A6E5802359461B030B431B0317001B0BA7
:10755000064A9DE5BD42B2D89B460024BFE6804561
:10756000B9D31A00C3E7C046FF030000FF070000BD
:107570001E0400003E040000F0B54F464646D646C5
:107580008446C0B58046194E18030F034D00000B0A
:107590005C0082463F0B6D0DC90F9146640DDB0FF9
:1075A0000120B5420AD0B44203D0A54201D15745CB
:1075B0000CD01CBC90469946A246F0BD66463E43A0
:1075C000F7D1AC42F5D154461443F2D10120C8455D
:1075D000EFD1994207D0002DEBD163461F4338000D
:1075E000471EB841E5E70020E3E7C046FF0700007B
:1075F000F0B54F464646D6464D00C0B50E03C90FFE
:107600008A462C491F035C008046360B6D0D91465F
:107610003F0B640DDB0F8D421ED08C4216D0002D27
:107620001ED130438446002C01D13A4323D0624618
:10763000002A1AD09A4529D0514602200139084023
:1076400001381CBC90469946A246F0BD3900114352
:10765000E5D002204042F4E73043FAD1AC420FD0EB
:10766000002C0FD13A43E7D00CE00122013B9343B9
:1076700018000130E5E763460020002BE1D0DBE78E
:107680003A43E6D19A45D7D1A542D5DCA54205DBE0
:10769000BE42D1D808D00020BE42D2D250460123EB
:1076A000013898430130CCE7C845C5D80020C8450B
:1076B000F4D3C6E7FF070000F0B54F464646D6466E
:1076C0004D00C0B50E03C90F8A462E491F035C004A
:1076D0008046360B6D0D91463F0B640DDB0F8D42DE
:1076E00018D08C4211D0002D18D130438446002C84
:1076F0001ED13A431CD163460020002B30D05146A6
:1077000002200139084001382AE039001143EAD04B
:10771000022025E03043FBD1AC4226D0002C26D1FC
:107720003A4324D15146022001390840013817E07C
:107730006246002A0FD09A45E1D1A54205DBBE4240
:10774000DDD819D00020BE420AD2504601230138AC
:107750009843013004E00122013B934318000130BB
:107760001CBC90469946A246F0BD3A43D0D19A45FA
:10777000C5D1A542C3DCE0E7C845C0D80020C84554
:10778000E3D3EDE7FF070000F0B55746DE464E466F
:107790004546E0B5834606000F03480087B0924691
:1077A0001D003F0B400DCC0F002800D16FE0DE4BD9
:1077B000984238D08023FF001B041F43730F3B43C4
:1077C0000193DA4B0027994600239B46F60081443B
:1077D0002B0369001B0B52469846490DED0F0029FB
:1077E00000D185E0D04B994200D173E04346DA00E6
:1077F00080231B0413435246CC48520F8446134344
:10780000524600206144D200894421006940009121
:107810008C46012149448A460F2F00D990E0C44983
:10782000BF00CF59BF465B463B43019300D06AE19E
:1078300002230827002681469B46C9E732005846A6
:10784000019B61460091022800D175E0032800D118
:10785000FEE1012800D02CE10023002700260025AE
:107860003F032A0D3F0BB34812053A4302401B0564
:107870001343009A5B00D1075B080B4330001900EB
:1078800007B03CBC90469946A246AB46F0BD5B466D
:107890003B43019300D12FE1002F00D1A5E1380037
:1078A00000F002FE03000B3B1C2B00DD96E11D22C5
:1078B000D31A5A460100DA405E4608398F40130059
:1078C0008E403B4301939C4B00271B1A9946002393
:1078D0009B467DE7414653460B4393498C46E14422
:1078E000002B00D01AE102220220174300228CE76D
:1078F000134300D10DE14346002B00D181E1404606
:1079000000F0D2FD02000B3A1C2A00DD72E10100FA
:10791000434608398B4098461D239A1A5346D34054
:107920001A004346134352468A404946081A824980
:1079300089468144002068E77B4B002700268EE7BC
:10794000140C1204120C1100370C3604350C794358
:1079500028008C462E006043604483465643210035
:10796000300C80465846794340440291844506D9FC
:107970008846802149028C46E04441460291360403
:10798000010C360C00048B4681191E0C1B041B0CC9
:107990000391190079438C46280075436544A84635
:1079A0005843050C45447743A94203D98021490235
:1079B0008C466744290C8C4639000004000C2D04C9
:1079C0002D186144AB4405915946049101990F0467
:1079D0003F0C080C390051434243904602008C464C
:1079E000090C8B4662437C4344445C44A04503D964
:1079F0008021490288464244210C88466146090498
:107A0000090C8C4639005943434370437E430F0CA5
:107A1000F6182404BE19644442448C46B34203D988
:107A200080235B0298464044029B61469846049B33
:107A3000370443449B46AB45AD416B420D04059969
:107A40002D0C8C467F196744FD18A8465D462D19FC
:107A5000A542A44193466442A446C344DC448F42F9
:107A6000BF4198459B4193459241A445A4415B4247
:107A70007F421F43360C52426442BF192243BF1853
:107A8000624638184302D20D039913436A020A432F
:107A9000501E82416146ED0D2A434E023243D90108
:107AA00000D4B3E00126500832400243DE073243DF
:107AB0005B08224C5444002C62DD510709D00F2092
:107AC0001040042805D0101D9042924152429B184C
:107AD0000200D90104D580241948E400034054442D
